:100000000C9434000C9451000C9451000C94510049
:100010000C9451000C9451000C9451000C94D50494
:100020000C9451000C9451000C9451000C94AE04AB
:100030000C9451000C9451000C9487040C945100C2
:100040000C9451000C9451000C9451000C945100EC
:100050000C9451000C9451000C9451000C945100DC
:100060000C9451000C94510011241FBECFEFD8E026
:10007000DEBFCDBF12E0A0E0B1E0E4ECF9E102C0E8
:1000800005900D92A037B107D9F712E0A0E7B2E0D2
:1000900001C01D92AE39B107E1F70E94AC000C948B
:1000A000E00C0C9400008DEF84B98CEF87B98FEFD2
:1000B0008AB940E050E0E1E0F0E060E47FE113C0A5
:1000C00085B19F01042E02C0220F331F0A94E2F76C
:1000D000822B85B9CB010197F1F785B120952823B3
:1000E00025B94F5F5F4F4830510554F340E050E071
:1000F00088B19F01042E02C0220F331F0A94E2F739
:10010000822B88B9CB010197F1F788B1209528237C
:1001100028B94F5F5F4F4830510551F740E050E03C
:100120008BB19F01042E02C0220F331F0A94E2F705
:10013000822B8BB9CB010197F1F78BB12095282346
:100140002BB94F5F5F4F4830510551F740E050E009
:10015000CACF0E94BD0008950E94BD008CE892E0C5
:1001600060E071E00E94D90C8CE892E00E94CC0023
:100170008CE892E00E94EE00F1CF87E690E0909349
:10018000C5008093C400E1ECF0E080818861808349
:1001900086E08093C2000895DC0120E030E0922FD9
:1001A000FD01E20FF31FE0818091C00085FFFCCFCD
:1001B000E093C600EE2319F4892F8F5F08952F5F17
:1001C0003F4F2230310559F711961C928091C000A3
:1001D00085FFFCCF1092C60082E00895DC01F89400
:1001E0008091C00087FD03C0789480E00895FD01F0
:1001F00090E08091C00087FFFCCF8091C600808393
:100200009F5F882311F4892F08953196923089F7E2
:1002100011961C92789482E008958091C00087FF27
:10022000FCCF8091C6000895982F8091C00085FF73
:10023000FCCF9093C6000895EF920F93CF93DF9376
:10024000FC01DB01EA013183208302838C918C93D2
:10025000EE2051F0288181E090E002C0880F991FC4
:100260000A95E2F7282B2883DF91CF910F91EF9029
:100270000895DC01ED91FC911197208112964C912B
:1002800050E081E090E0042E02C0880F991F0A948C
:10029000E2F730E08223932302C0959587954A9533
:1002A000E2F7892B09F451E0852F08950F93FC01A3
:1002B00000937602909398028093970270939A022B
:1002C000609399024093720220937302808161E0EF
:1002D00070E0DB0102C0AA0FBB1F4A95E2F78A2B30
:1002E0008083E0919702F09198028081AB01022E09
:1002F00002C0440F551F0A94E2F7842B80831092AA
:100300009D0210929C02E0919902F0919A028081E4
:1003100080919B0280939B0230919B02808190E0B0
:100320004823592302C0559547952A95E2F702C004
:10033000660F771F4A95E2F7362B30939B02109297
:1003400096020F9108950F93CF93DF93DC01FA018A
:100350008C9141E050E0EA0102C0CC0FDD1F6A95AC
:10036000E2F78C2B8C938081BA0102C0660F771F55
:100370002A95E2F7862B8083808102C0440F551FA7
:100380000A95E2F7842B80837894DF91CF910F91C7
:1003900008959093090180930801089580910801C0
:1003A00090910901089590937102809370020895CD
:1003B0008091700290917102089590939D028093B4
:1003C0009C02089520919C0230919D02C9010895DC
:1003D0009093070180930601089580919C0290916B
:1003E0009D022091060130910701820F931F909387
:1003F0009D0280939C0280919C0290919D0220918D
:10040000080130910901281739078CF48091760290
:10041000882349F0809170029091710290939D021F
:1004200080939C02089530939D0220939C0208952E
:1004300080919C0290919D022091060130910701CC
:10044000821B930B90939D0280939C0280919C024F
:1004500090919D0220917002309171028217930752
:100460008CF480917602882349F080910801909164
:10047000090190939D0280939C02089530939D0200
:1004800020939C02089510929B02E0919902F091B2
:100490009A02208140919B0230E05091720261E00B
:1004A00070E0CB01052E02C0880F991F0A94E2F775
:1004B0008223932302C0959587955A95E2F7482B9E
:1004C00040939B0240919B0250917302CB01052EF9
:1004D00002C0880F991F0A94E2F78223932302C077
:1004E000959587955A95E2F7880F991F482B409369
:1004F0009B0290919B0280919602981709F44CC040
:1005000080919602813081F0813028F08230F1F0C4
:10051000833069F512C080919B028130D9F08091BF
:100520009B02823021F51FC080919B02833091F0A5
:1005300080919B028823D9F416C080919B0282305F
:1005400049F080919B02813091F40DC080919B0213
:10055000882329F4109275021092740208C08091C9
:100560009B02833021F47093750260937402809132
:10057000740290917502892B19F40E94ED0108C054
:100580008091740290917502019711F40E941802F3
:1005900080919B02809396020895ECE7F0E0108230
:1005A0009081906490839081906290839081982B49
:1005B0009083EAE7F0E080818760808380818068B3
:1005C0008083089580917A00806480937A0080917E
:1005D0007A0086FDFCCF8091790008950E941B046B
:1005E00008950E9404040895FF920F931F93182FFB
:1005F000F42E422F202F0E940803812F6F2D0E947E
:100600007003812F0E9432041F910F91FF90089573
:10061000E82FF0E0DF01A358BD4F6C93EE0FFF1FF2
:10062000DF01A058BD4F4C9311961C92EA57FD4F25
:10063000208311820895CF93DF93C82FD0E0DE018D
:10064000AA0FBB1FFD01E958FD4F51834083FD01F7
:10065000E058FD4F80819181892BD9F0FD01E45E46
:10066000FE4F0190F081E02D71836083A25DBE4F4B
:100670000D90BC91A02D2C91FE01E15BFE4F81E01D
:1006800090E0008002C0880F991F0A94E2F7282B9F
:100690002C93DE01AA0FBB1FFD01EA57FD4F80819D
:1006A0009181892BC9F0FD01EE5DFE4F0190F08133
:1006B000E02D71836083A25DBE4FED91FC9120819E
:1006C000CE5ADE4F81E090E0088002C0880F991F6B
:1006D0000A94E2F7282B20837894DF91CF91089534
:1006E0000F931F93CF93DF93482F50E0EA01CC0F75
:1006F000DD1F8E01065F1E4FF801A081B1812C9194
:10070000862F837090E0FA01EA5BFE4F008002C002
:10071000880F991F0A94E2F7282B2C93FE01E05FC3
:10072000FE4FA081B1818C9170E06C7070707695F5
:10073000679576956795FA01E75BFE4F008002C0EA
:10074000660F771F0A94E2F7862B8C93FE01E05820
:10075000FD4F80819181892B19F1F801A081B18130
:100760002C91FA01EB5AFE4F82E090E0008002C02B
:10077000880F991F0A94E2F7282B2C93C65CDE4F52
:10078000A881B9812C91FA01E55AFE4F81E090E0F1
:10079000008002C0880F991F0A94E2F7282B2C933F
:1007A000EA01CC0FDD1FFE01EA57FD4F80819181E8
:1007B000892B29F1FE01E65FFE4FA081B1812C91CA
:1007C000FA01E85AFE4F82E090E0008002C0880FF4
:1007D000991F0A94E2F7282B2C93C05CDE4FE88126
:1007E000F9812081425A5E4F81E090E0DA010C905D
:1007F00002C0880F991F0A94E2F7282B2083DF910B
:10080000CF911F910F910895E82F813039F4E09135
:100810001E01F0911F01718360830895F0E0EE0FD7
:10082000FF1FE45EFE4F0190F081E02D862F90E0E7
:10083000918380830895E82F813039F4E091240179
:10084000F0912501718360830895F0E0EE0FFF1FA2
:10085000EE5DFE4F0190F081E02D862F90E09183B8
:1008600080830895A82FB0E0FD01EE0FFF1FE05F29
:10087000FE4F40815181FA012081FD01E358FD4F77
:10088000808190E0A45BBE4F0C9002C0880F991F3E
:100890000A94E2F7282BFA0120830895A82FB0E0EC
:1008A000FD01EE0FFF1FE05FFE4F0190F081E02D94
:1008B0002081A45BBE4F87E090E00C9002C0880FBF
:1008C000991F0A94E2F780958223808308958130EE
:1008D00029F4E0911801F091190109C0E82FF0E026
:1008E000EE0FFF1FEA5EFE4F0190F081E02D1182B6
:1008F00010820895E82FF0E0EE0FFF1FEA5EFE4F32
:100900000190F081E02D20813181C90108951F926D
:100910000F920FB60F9211242F933F934F935F9333
:100920006F937F938F939F93AF93BF93EF93FF93B7
:10093000E0917702F09178020995FF91EF91BF91D4
:10094000AF919F918F917F916F915F914F913F9167
:100950002F910F900FBE0F901F9018951F920F921E
:100960000FB60F9211242F933F934F935F936F9382
:100970007F938F939F93AF93BF93EF93FF93E091F8
:100980007902F0917A020995FF91EF91BF91AF91B1
:100990009F918F917F916F915F914F913F912F9197
:1009A0000F900FBE0F901F9018951F920F920FB6C9
:1009B0000F9211242F933F934F935F936F937F93E5
:1009C0008F939F93AF93BF93EF93FF93E0917B023D
:1009D000F0917C020995FF91EF91BF91AF919F91AA
:1009E0008F917F916F915F914F913F912F910F90D8
:1009F0000FBE0F901F9018959BB19F709BB99BB134
:100A00008295807F982B9BB92998299A88EE93E04C
:100A10000197F1F7299808951F93182F82958F70E9
:100A20000E94FC04812F8F700E94FC0480E49FE1EF
:100A30000197F1F71F91089528980E940C050895D9
:100A4000882311F080EC01C080E8860F0E941C050D
:100A50000895289A0E940C0508951F93CF93DF9361
:100A6000EC0110E003C00E9429051F5FFE01E10FA9
:100A7000F11D80818823B9F7DF91CF911F910895EF
:100A80000E94E202282F30E0C90186970F9718F4E0
:100A900021E030E021C0C901805690400F9718F442
:100AA00022E030E019C0C901855990400F9718F431
:100AB00023E030E011C0C90107960F9718F424E035
:100AC00030E00AC0255C30402F30310518F020E0BE
:100AD00030E002C025E030E0C90108950F931F9374
:100AE00080E00E94CD028AB18FEF8AB984B1836021
:100AF00084B980E69AEE0197F1F783E00E94FC0446
:100B000080E29EE40197F1F783E00E94FC0480EE0E
:100B100091E00197F1F783E00E94FC0482E00E94DB
:100B2000FC0400E41FE1C8010197F1F788E20E948C
:100B30001C05C8010197F1F78FE00E941C05C80150
:100B40000197F1F781E00E941C051F910F91089514
:100B5000DC01FA0111965C934E9312962C93DB0103
:100B60003C9181E090E002C0880F991F2A95E2F73E
:100B7000382B3C93808180830895FC01A081B18152
:100B80002C9181E090E0028002C0880F991F0A94A6
:100B9000E2F7282B2C930895FC01A081B1812C91C0
:100BA00081E090E0028002C0880F991F0A94E2F76A
:100BB000809582238C930895AF92BF92CF92DF925B
:100BC000EF92FF920F931F93CF93DF93EC01E88195
:100BD000F981408121E030E00A8002C0220F331FFA
:100BE0000A94E2F7422B4083882777FD8095982F5F
:100BF0000E94FB095B016C0120E030E04AE755E40C
:100C00000E9471087B018C0120E030E040E85FE346
:100C10000E94CB0988231CF461E070E024C0C80165
:100C2000B70120E03FEF4FE757E40E946B09181629
:100C3000B4F4C601B50120E030E040E251E40E9486
:100C400071080E949B0680E991E005C0FC01319784
:100C5000F1F76150704061157105C1F707C0C80117
:100C6000B7010E949B06CB010197F1F7E881F9815A
:100C7000208181E090E00A8002C0880F991F0A94C9
:100C8000E2F7809582238083C801B70120E030E03D
:100C900040E85FE30E94CB0988231CF461E070E028
:100CA00024C0C801B70120E03FEF4FE757E40E949E
:100CB0006B091816B4F4C601B50120E030E040E23B
:100CC00051E40E9471080E949B0680E991E005C0F2
:100CD000FC013197F1F76150704061157105C1F762
:100CE00007C0C801B7010E949B06CB010197F1F72D
:100CF000DF91CF911F910F91FF90EF90DF90CF90F8
:100D0000BF90AF900895DC01ED91FC911197208187
:100D100012964C9181E090E0042E02C0880F991F3A
:100D20000A94E2F730E08223932302C095958795D9
:100D30004A95E2F70895EF92FF920F931F937B017C
:100D40008C0120E030E040E05FE40E949B098823B2
:100D50008CF0C801B70120E030E040E05FE40E9481
:100D600013080E94590A9B01AC01205030404040BA
:100D7000504806C0C801B7010E94590A9B01AC0146
:100D8000B901CA011F910F91FF90EF900895A0E063
:100D9000B0E0EDECF6E00C94A20CDC012B01FA01C2
:100DA0009C91923008F439C1EB018881823008F4BB
:100DB00033C1943069F4843009F02FC111969C91AD
:100DC00011978981981709F428C1A7E6B1E025C1D8
:100DD000843009F421C18230A9F4923009F01DC198
:100DE0009A01AD0188E0EA010990AE01E90109929A
:100DF0009E018150C1F7E201898111969C9189235E
:100E0000818308C1923009F407C112962D903C905D
:100E10001397EB018A819B811496AD90BD90CD9084
:100E2000DC901797EC80FD800E811F819101281BBB
:100E3000390BB90137FF04C066277727621B730B94
:100E4000603271050CF061C0121613066CF53701A3
:100E50004801062E04C096948794779467940A9468
:100E6000D2F721E030E040E050E004C0220F331F11
:100E7000441F551F6A95D2F72150304040405040E2
:100E80002E213F21402351232115310541055105D4
:100E900021F021E030E040E050E079018A01E628CD
:100EA000F728082919293CC0232BD1F1260E371E1B
:100EB00035014601062E04C0969487947794679472
:100EC0000A94D2F721E030E040E050E004C0220F65
:100ED000331F441F551F6A95D2F7215030404040C0
:100EE00050402A213B214C215D212115310541052E
:100EF000510521F021E030E040E050E059016A0165
:100F0000A628B728C828D9280BC0821593052CF02D
:100F10001C01AA24BB24650103C0EE24FF24870121
:100F200011969C91D20111968C91981709F445C0A5
:100F3000992339F0A80197012A193B094C095D0949
:100F400006C0A60195012E193F09400B510B57FD14
:100F500008C01182338222822483358346835783DB
:100F60001DC081E081833382228288279927DC019A
:100F7000821B930BA40BB50B84839583A683B78345
:100F80000DC0220F331F441F551F24833583468312
:100F90005783828193810197938382832481358152
:100FA00046815781DA01C9010197A109B1098F5F13
:100FB0009F4FAF4FBF4328F30BC0918333822282F0
:100FC000EA0CFB1C0C1D1D1DE482F58206831783B1
:100FD00083E08083248135814681578157FF1AC081
:100FE000C901AA2797FDA095BA2F81709070A070B3
:100FF000B0705695479537952795822B932BA42B48
:10100000B52B84839583A683B783828193810196D0
:1010100093838283DF0101C0D201CD01CDB7DEB75A
:10102000E2E10C94BE0CA0E2B0E0E9E1F8E00C943F
:10103000AE0C69837A838B839C832D833E834F839D
:101040005887E9E0EE2EF12CEC0EFD1ECE01019644
:10105000B7010E94D10B8E010F5E1F4FCE01059686
:10106000B8010E94D10B8A8991E089278A8BC70138
:10107000B801AE01475E5F4F0E94C7060E94FC0A9E
:10108000A096E6E00C94CA0CA0E2B0E0EAE4F8E036
:101090000C94AE0C69837A838B839C832D833E836F
:1010A0004F835887F9E0EF2EF12CEC0EFD1ECE0198
:1010B0000196B7010E94D10B8E010F5E1F4FCE012A
:1010C0000596B8010E94D10BC701B801AE01475E79
:1010D0005F4F0E94C7060E94FC0AA096E6E00C94AF
:1010E000CA0CA0E2B0E0E7E7F8E00C94A20C698338
:1010F0007A838B839C832D833E834F835887CE01D5
:101100000196BE01675F7F4F0E94D10BCE0105960D
:10111000BE016F5E7F4F0E94D10B9985923088F09F
:1011200089898230C8F0943019F4823051F404C0B7
:10113000843029F4923081F487E691E0C6C0923081
:1011400049F420E09A858A89981321E02A87CE0104
:101150000996BBC0823049F420E09A858A899813A9
:1011600021E02A8BCE014196B0C02D843E844F846D
:1011700058886D887E888F88988CEE24FF2487019C
:10118000AA24BB24650140E050E060E070E0E0E0AC
:10119000F0E0C10181709070892BE9F0E60CF71C3A
:1011A000081D191D9A01AB012A0D3B1D4C1D5D1D2B
:1011B00080E090E0A0E0B0E0E614F704080519052F
:1011C00020F481E090E0A0E0B0E0BA01A901480F6E
:1011D000591F6A1F7B1FAA0CBB1CCC1CDD1C97FE71
:1011E00008C081E090E0A0E0B0E0A82AB92ACA2AAD
:1011F000DB2A3196E032F10549F0660C771C881C39
:10120000991C5694479437942794C3CFFA85EA895A
:101210002B893C898B859C85280F391F2E5F3F4F7A
:1012200017C0CA0181709070892B61F016950795DF
:10123000F794E79480E090E0A0E0B0E8E82AF92A8B
:101240000A2B1B2B76956795579547952F5F3F4F38
:1012500077FDE7CF0CC0440F551F661F771F17FDA2
:101260004160EE0CFF1C001F111F21503040403028
:1012700090E0590790E0690790E4790760F32B8FBD
:101280003C8FDB01CA018F779070A070B070803402
:101290009105A105B10561F447FD0AC0E114F1040F
:1012A0000105110529F0405C5F4F6F4F7F4F40787B
:1012B0001A8EFE1711F081E08A8F4D8F5E8F6F8F2F
:1012C00078A383E0898FCE0149960E94FC0AA096FC
:1012D000E2E10C94BE0CA8E1B0E0E1E7F9E00C9487
:1012E000AE0C69837A838B839C832D833E834F83EB
:1012F000588789E0E82EF12CEC0EFD1ECE010196F8
:10130000B7010E94D10B8E010F5E1F4FCE010596D3
:10131000B8010E94D10B8985823040F089898230E2
:1013200028F0C701B8010E94490C01C08FEF6896F0
:10133000E6E00C94CA0CA8E1B0E0E1EAF9E00C9414
:10134000AE0C69837A838B839C832D833E834F838A
:10135000588789E0E82EF12CEC0EFD1ECE01019697
:10136000B7010E94D10B8E010F5E1F4FCE01059673
:10137000B8010E94D10B8985823040F08989823082
:1013800028F0C701B8010E94490C01C08FEF689690
:10139000E6E00C94CA0CA8E1B0E0E1EDF9E00C94B1
:1013A000AE0C69837A838B839C832D833E834F832A
:1013B000588789E0E82EF12CEC0EFD1ECE01019637
:1013C000B7010E94D10B8E010F5E1F4FCE01059613
:1013D000B8010E94D10B8985823040F08989823022
:1013E00028F0C701B8010E94490C01C081E068964D
:1013F000E6E00C94CA0CA8E0B0E0E1E0FAE00C945E
:10140000AB0C9B01AC0183E08983DA01C901882719
:10141000B7FD83959927AA27BB27B82E211531053B
:101420004105510519F482E089833AC08823A9F067
:10143000203080E0380780E0480780E8580729F42A
:1014400060E070E080E09FEC30C0EE24FF24870174
:10145000E21AF30A040B150B02C079018A018EE12E
:10146000C82ED12CDC82CB82ED82FE820F831887BE
:10147000C801B7010E94AD0A01971816190684F435
:10148000082E04C0EE0CFF1C001F111F0A94D2F797
:10149000ED82FE820F831887C81AD90ADC82CB82BC
:1014A000BA82CE0101960E94FC0A2896E9E00C94CB
:1014B000C70CACE0B0E0EFE5FAE00C94B20C698345
:1014C0007A838B839C83CE010196BE016B5F7F4F35
:1014D0000E94D10B8D81823061F1823050F18430D5
:1014E00021F48E81882351F12EC02F81388537FD5C
:1014F00020C06E812F3131051CF06623F9F023C026
:101500008EE190E0821B930B29853A854B855C85A3
:1015100004C056954795379527958A95D2F7662347
:10152000B1F050954095309521953F4F4F4F5F4F0B
:101530000EC020E030E040E050E009C02FEF3FEF68
:101540004FEF5FE704C020E030E040E050E8B90131
:10155000CA012C96E2E00C94CE0CEF92FF920F930E
:101560001F937B018C0180E0E81680E0F80681E0A3
:10157000080780E0180788F48FEFE816F1040105EA
:10158000110531F028F088E090E0A0E0B0E017C04D
:1015900080E090E0A0E0B0E012C080E0E81680E0DB
:1015A000F80680E0080781E0180728F088E190E05D
:1015B000A0E0B0E004C080E190E0A0E0B0E020E274
:1015C00030E040E050E0281B390B4A0B5B0B04C0B5
:1015D00016950795F794E7948A95D2F7F701E159A4
:1015E000FE4F8081281B310941095109C9011F9112
:1015F0000F91FF90EF900895DF92EF92FF920F937B
:101600001F93FC01E480F58006811781D1808081E1
:10161000823048F480E090E0A0E1B0E0E82AF92AC6
:101620000A2B1B2BA5C0843009F49FC0823021F403
:10163000EE24FF24870105C0E114F1040105110522
:1016400019F4E0E0F0E096C0628173819FEF6238A8
:1016500079070CF05BC022E83FEF261B370B2A31DD
:1016600031052CF020E030E040E050E02AC0B80125
:10167000A701022E04C076956795579547950A9461
:10168000D2F781E090E0A0E0B0E004C0880F991F9D
:10169000AA1FBB1F2A95D2F70197A109B1098E2174
:1016A0009F21A023B1230097A105B10521F081E07E
:1016B00090E0A0E0B0E09A01AB01282B392B4A2B37
:1016C0005B2BDA01C9018F779070A070B070803405
:1016D0009105A105B10539F427FF09C0205C3F4FF2
:1016E0004F4F5F4F04C0215C3F4F4F4F5F4FE0E0D3
:1016F000F0E02030A0E03A07A0E04A07A0E45A0753
:1017000010F0E1E0F0E079018A0127C0603871054E
:1017100064F5FB01E158FF4FD801C7018F77907046
:10172000A070B07080349105A105B10539F4E7FED1
:101730000DC080E490E0A0E0B0E004C08FE390E052
:10174000A0E0B0E0E80EF91E0A1F1B1F17FF05C03E
:1017500016950795F794E794319687E016950795C7
:10176000F794E7948A95D1F705C0EE24FF2487010A
:10177000EFEFF0E06E2F679566276795902F9F77C4
:10178000D794DD24D7948E2F8695492F462B582F3A
:101790005D29B701CA011F910F91FF90EF90DF9073
:1017A0000895FC01DB01408151812281622F6F7716
:1017B00070E0221F2227221F9381892F880F822BFE
:1017C000282F30E0991F9927991F11969C93119704
:1017D00021153105A9F5411551056105710511F472
:1017E00082E037C082E89FEF13969C938E93129706
:1017F0009A01AB0167E0220F331F441F551F6A9502
:10180000D1F783E08C930DC0220F331F441F551F67
:1018100012968D919C911397019713969C938E939A
:101820001297203080E0380780E0480780E45807AE
:1018300058F314962D933D934D935C931797089509
:101840002F3F310579F4411551056105710519F4F2
:1018500084E08C93089564FF03C081E08C9312C0F0
:101860001C9210C02F57304013963C932E93129722
:1018700083E08C9387E0440F551F661F771F8A957E
:10188000D1F7706414964D935D936D937C93179785
:1018900008951F93DC01FB019C91923008F447C02E
:1018A0008081823008F443C0943051F411961C9129
:1018B000843099F58181682F70E0611B71093FC008
:1018C000843021F0923031F48230B9F18181882363
:1018D00089F12DC011961C9111978230F1F0818110
:1018E0001817D9F412962D913C9113978281938108
:1018F0008217930794F028173907BCF014968D913E
:101900009D910D90BC91A02D2481358146815781F8
:10191000281739074A075B0718F4112341F00AC05A
:1019200082179307A407B50740F4112319F061E06B
:1019300070E005C06FEF7FEF02C060E070E0CB01A8
:101940001F9108952F923F924F925F926F927F92D4
:101950008F929F92AF92BF92CF92DF92EF92FF92BF
:101960000F931F93CF93DF93CDB7DEB7CA1BDB0B6B
:101970000FB6F894DEBF0FBECDBF09942A88398810
:1019800048885F846E847D848C849B84AA84B98417
:10199000C884DF80EE80FD800C811B81AA81B98123
:1019A000CE0FD11D0FB6F894DEBF0FBECDBFED0137
:1019B0000895FB01DC0101900D920020E1F70895EC
:0419C000F894FFCFC9
:1019C40048656C6C6F000100400044008000B0006A
:1019D40045008100B10046008400B2004700880041
:1019E400B30048008A00B4000000860000006E00C6
:1019F4006F0070003500360037002A0024002A00EA
:101A04002A00240024000000000303000000000159
:101A1400010102020206060604040405010306028B
:101A240003FF00FEFFFF00000000000000000000B4
:101A3400010202030303030404040404040404056C
:101A44000505050505050505050505050505050641
:101A54000606060606060606060606060606060622
:101A64000606060606060606060606060606060711
:101A740007070707070707070707070707070707F2
:101A840007070707070707070707070707070707E2
:101A940007070707070707070707070707070707D2
:101AA40007070707070707070707070707070708C1
:101AB40008080808080808080808080808080808A2
:101AC4000808080808080808080808080808080892
:101AD4000808080808080808080808080808080882
:101AE4000808080808080808080808080808080872
:101AF4000808080808080808080808080808080862
:101B04000808080808080808080808080808080851
:101B14000808080808080808080808080808080841
:101B24000808080808080808080808080808080039
:00000001FF
