:100000000C9434000C943E000C943E000C943E0082
:100010000C943E000C943E000C943E000C943E0068
:100020000C943E000C943E000C943E000C943E0058
:100030000C943E000C943E000C943E000C943E0048
:100040000C943E000C943E000C943E000C943E0038
:100050000C943E000C943E000C943E000C943E0028
:100060000C943E000C943E0011241FBECFEFD8E04C
:10007000DEBFCDBF0E9440000C9496000C9400009F
:100080008DEF84B98CEF87B98FEF8AB940E050E0EB
:10009000E1E0F0E060E47FE113C085B19F01042E50
:1000A00002C0220F331F0A94E2F7822B85B9CB01DD
:1000B0000197F1F785B12095282325B94F5F5F4F50
:1000C0004830510554F340E050E088B19F01042EC0
:1000D00002C0220F331F0A94E2F7822B88B9CB01AA
:1000E0000197F1F788B12095282328B94F5F5F4F1A
:1000F0004830510551F740E050E08BB19F01042E8C
:1001000002C0220F331F0A94E2F7822B8BB9CB0176
:100110000197F1F78BB1209528232BB94F5F5F4FE3
:100120004830510551F740E050E0CACFF894FFCF76
:00000001FF
